:020000040800F2
:100000006806002099020008A1020008A302000867
:10001000A5020008A7020008A902000800000000CD
:10002000000000000000000000000000AB0200081B
:10003000AD02000800000000AF020008B102000895
:10004000B3020008B3020008B3020008B3020008BC
:10005000B3020008B3020008B3020008B3020008AC
:10006000B3020008B3020008B3020008B30200089C
:10007000B3020008B3020008B3020008B30200088C
:10008000B3020008B3020008B3020008B30200087C
:10009000B3020008B3020008B3020008B30200086C
:1000A000B3020008B3020008B3020008B30200085C
:1000B000B3020008B3020008B3020008B30200084C
:1000C000B3020008B3020008B3020008B30200083C
:1000D000B3020008B3020008B3020008B30200082C
:1000E000B3020008B3020008B3020008B30200081C
:1000F000B3020008B3020008B3020008B30200080C
:10010000B3020008B3020008B3020008B3020008FB
:10011000B3020008B3020008B3020008B3020008EB
:10012000B3020008B3020008B3020008B3020008DB
:10013000B3020008B3020008B3020008B3020008CB
:10014000B3020008B3020008B3020008B3020008BB
:10015000B3020008B3020008B3020008B3020008AB
:10016000B3020008B3020008B3020008B30200089B
:10017000B3020008B3020008B30200080000000048
:10018000B3020008B3020008B3020008B30200087B
:10019000B3020008B3020008B3020008B30200086B
:1001A000B3020008B3020008B3020008B30200085B
:1001B000B3020008B3020008B3020008B30200084B
:1001C000B3020008B302000800000000B3020008F8
:1001D000B3020008B3020008B3020008B30200082B
:1001E000B3020008B3020008B3020008B30200081B
:1001F000B3020008B302000800F002F800F03CF877
:100200000AA090E8000C82448344AAF10107DA4571
:1002100001D100F031F8AFF2090EBAE80F0013F087
:10022000010F18BFFB1A43F001031847FC0100003F
:100230001C020000103A24BF78C878C1FAD85207CF
:1002400024BF30C830C144BF04680C607047000050
:100250000023002400250026103A28BF78C1FBD8CF
:10026000520728BF30C148BF0B6070471FB500F070
:10027000CDF81FBD10B510BD00F031F81146FFF7E5
:10028000F5FF00F0B1F800F04FF803B4FFF7F2FF0C
:1002900003BC00F057F800000948804709480047B0
:1002A000FEE7FEE7FEE7FEE7FEE7FEE7FEE7FEE726
:1002B000FEE7FEE704480549054A064B7047000083
:1002C00059030008F90100086800002068060020B2
:1002D000680200206802002070477047704775462A
:1002E00000F02CF8AE4605006946534620F00700A2
:1002F000854618B020B5FFF7DDFFBDE820404FF080
:1003000000064FF000074FF000084FF0000BAC461E
:10031000ACE8C009ACE8C009ACE8C009ACE8C00969
:1003200021F007018D46704710B50446AFF30080F9
:100330002046BDE81040FFF7A8BF00000048704706
:100340000800002001491820ABBEFEE7260002008D
:1003500070470000000000004EF68850CEF200000A
:10036000016841F4700101604FF0006140F8801CA9
:10037000704700000000000043F6300041F2555283
:10038000C4F20200016841F0010101600020C4F2E2
:1003900002000168114301604168416081681143B6
:1003A0008160C16840F6AA221143C1607047000015
:1003B000B0B540F20004C2F2000420680128B8BFC2
:1003C000B0BD002500F008F8013520688542F9DB52
:1003D000B0BD00000000000014200821C4F202009B
:1003E0000160704700000000FFF7C6FF44F24024A0
:1003F0001425C0F20F04C4F202050326FFF7D8FF4C
:10040000204600BF01382E60FCD1F7E7F1EE100A5C
:100410004FF6FF71C0F2C03120EA010040F0407099
:10042000E1EE100A704700004804000800000020B8
:1004300004000000340200084C04000808000020FA
:0C044000600600005002000840420F005F
:040000050800029954
:00000001FF
