:020000040800F2
:100000006806002039020008410200084302000887
:1000100045020008470200084902000800000000ED
:100020000000000000000000000000004B0200087B
:100030004D020008000000004F02000851020008B5
:10004000530200085302000853020008530200083C
:10005000530200085302000853020008530200082C
:10006000530200085302000853020008530200081C
:10007000530200085302000853020008530200080C
:100080005302000853020008530200080000000059
:100090000000000000000000000000005302000803
:1000A00053020008530200085302000853020008DC
:1000B00053020008530200085302000853020008CC
:1000C00053020008530200085302000853020008BC
:1000D0005302000853020008530200080000000009
:1000E00053020008530200085302000800000000F9
:1000F00000000000000000000000000053020008A3
:1001000000000000530200085302000853020008D8
:1001100000000000000000000000000000000000DF
:10012000530200085302000853020008530200085B
:100130005302000800000000000000000000000062
:100140000000000000000000000000005302000852
:10015000530200085302000853020008530200082B
:1001600053020008530200080000000000000000D5
:10017000000000000000000000000000000000007F
:100180000000000053020008000000000000000012
:10019000530200085302000800F002F800F03CF897
:1001A0000AA090E8000C82448344AAF10107DA45D2
:1001B00001D100F031F8AFF2090EBAE80F0013F0E8
:1001C000010F18BFFB1A43F001031847680800002D
:1001D00088080000103A24BF78C878C1FAD85207BE
:1001E00024BF30C830C144BF04680C6070470000B1
:1001F0000023002400250026103A28BF78C1FBD830
:10020000520728BF30C148BF0B6070471FB500F0D0
:1002100004FC1FBD10B510BD00F031F81146FFF70A
:10022000F5FF00F09DFB00F04FF803B4FFF7F2FF7D
:1002300003BC00F057F80000094880470948004710
:10024000FEE7FEE7FEE7FEE7FEE7FEE7FEE7FEE786
:10025000FEE7FEE704480549054A064B70470000E3
:10026000F5020008990100086800002068060020D7
:10027000680200206802002070477047704775468A
:1002800000F02CF8AE4605006946534620F0070002
:10029000854618B020B5FFF7DDFFBDE820404FF0E0
:1002A00000064FF000074FF000084FF0000BAC467F
:1002B000ACE8C009ACE8C009ACE8C009ACE8C009CA
:1002C00021F007018D46704710B50446AFF300805A
:1002D0002046BDE81040FFF7A8BF00000048704767
:1002E0000800002001491820ABBEFEE726000200EE
:1002F000704700004EF68850CEF20000016841F4CD
:10030000700101607047000043F63000C4F2020043
:10031000016841F2555241F0010101600020C4F230
:100320000200016811430160416841608168114326
:100330008160C16840F6AA221143C160D0F8001460
:1003400041F48011C0F8001440F20440C4F20200ED
:1003500001680160416841F480114160816841F4A5
:10036000001181607047000043F63000C4F20200C3
:10037000016841F00201016040F20040C4F2020055
:10038000016801604168416081688160C16841F035
:100390002A01C1607047000040F20000C2F2000074
:1003A0000168012940F21401C4F2020108DB0022B5
:1003B0004FF0230CC1F800C0036801329A42F9DB08
:1003C0000268012A08DB00224FF01C0CC1F800C0B3
:1003D000036801329A42F9DB0268012A08DB002235
:1003E0004FF0230CC1F800C0036801329A42F9DBD8
:1003F0000268012A08DB00224FF01C0CC1F800C083
:10040000036801329A42F9DB0268012A08DB002204
:100410004FF0230CC1F800C0036801329A42F9DBA7
:100420000268012A08DB00224FF01C0CC1F800C052
:10043000036801329A42F9DB0268012A08DB0022D4
:100440004FF0230CC1F800C0036801329A42F9DB77
:100450000268012AB8BF704700224FF01C0C00BF91
:10046000C1F800C0036801329A42F9DB704700000E
:1004700040F20000C2F200000168012940F21401BC
:10048000C4F2020108DB00224FF07E0CC1F800C06C
:10049000036801329A42F9DB0268012A08DB002274
:1004A0004FF07D0CC1F800C0036801329A42F9DBBD
:1004B0000268012A08DB00224FF07B0CC1F800C063
:1004C000036801329A42F9DB0268012A08DB002244
:1004D0004FF0770CC1F800C0036801329A42F9DB93
:1004E0000268012A08DB00224FF06F0CC1F800C03F
:1004F000036801329A42F9DB0268012AB8BF7047EB
:1005000000224FF05F0C00BFC1F800C00368013249
:100510009A42F9DB7047000080B500F0E1F800F086
:10052000BBF800F0EFF800F003F800F0EBF880BD46
:10053000B0B540F20004C2F2000420680128B8BF40
:10054000B0BD002500F082F9206801358542F9DB55
:10055000B0BD0000B0B540F20004C2F20004206853
:100560000128B8BFB0BD002500F076F9206801353C
:100570008542F9DBB0BD0000B0B540F20004C2F224
:10058000000420680128B8BFB0BD002500F06AF95A
:10059000206801358542F9DBB0BD0000B0B540F2FE
:1005A0000004C2F2000420680128B8BFB0BD0025D5
:1005B00000F05EF9206801358542F9DBB0BD00002E
:1005C000B0B540F20004C2F2000420680128B8BFB0
:1005D000B0BD002500F052F9206801358542F9DBF5
:1005E000B0BD0000B0B540F20004C2F200042068C3
:1005F0000128B8BFB0BD002500F046F920680135DC
:100600008542F9DBB0BD0000B0B540F20004C2F293
:10061000000420680128B8BFB0BD002500F03AF9F9
:10062000206801358542F9DBB0BD0000B0B540F26D
:100630000004C2F2000420680128B8BFB0BD002544
:1006400000F02EF9206801358542F9DBB0BD0000CD
:10065000B0B540F20004C2F2000420680128B8BF1F
:10066000B0BD002500F022F9206801358542F9DB94
:10067000B0BD0000B0B540F20004C2F20004206832
:100680000128B8BFB0BD002500F016F9206801357B
:100690008542F9DBB0BD0000B0B540F20004C2F203
:1006A000000420680128B8BFB0BD002500F00AF999
:1006B000206801358542F9DBB0BD0000B0B540F2DD
:1006C0000004C2F2000420680128B8BFB0BD0025B4
:1006D00000F0FEF8206801358542F9DBB0BD00006E
:1006E000B0B540F20004C2F2000420680128B8BF8F
:1006F000B0BD002500F0F2F8206801358542F9DB35
:10070000B0BD0000B0B540F20004C2F200042068A1
:100710000128B8BFB0BD002500F0E6F8206801351B
:100720008542F9DBB0BD0000B0B540F20004C2F272
:10073000000420680128B8BFB0BD002500F0DAF839
:10074000206801358542F9DBB0BD0000B0B540F24C
:100750000004C2F2000420680128B8BFB0BD002523
:1007600000F0CEF8206801358542F9DBB0BD00000D
:10077000B0B540F20004C2F2000420680128B8BFFE
:10078000B0BD002500F0C2F8206801358542F9DBD4
:10079000B0BD0000B0B540F20004C2F20004206811
:1007A0000128B8BFB0BD002500F0B6F820680135BB
:1007B0008542F9DBB0BD0000B0B540F20004C2F2E2
:1007C000000420680128B8BFB0BD002500F0AAF8D9
:1007D000206801358542F9DBB0BD000080B5FFF728
:1007E000A7FEFFF747FFFFF7D9FEFFF779FFFFF7F7
:1007F000E7FEFFF787FF80BD80B5FFF799FEFFF7A3
:100800006FFFFFF795FEFFF759FFFFF79FFFFFF719
:10081000D7FE80BD80B5FFF7C1FEFFF789FEFFF769
:1008200029FFFFF7F1FEFFF7CBFEFFF711FF80BDB9
:1008300080B5FFF7D7FEFFF77BFEFFF751FFFFF70D
:100840009BFEFFF7E1FEFFF773FE80BD1420C4F2AC
:1008500002000821016070471420C4F20200032145
:10086000016070471420C4F2020046210160704705
:100870001420C4F202002121016070471420C4F248
:1008800002000621016070471420C4F2020010210A
:10089000016070471420C4F202004F2101607047CC
:1008A0001420C4F202000521016070471420C4F234
:1008B00002004721016070471420C4F202002B217E
:1008C000016070471420C4F20200402101607047AB
:1008D0001420C4F202001821016070471420C4F2F1
:1008E00002002F21016070471420C4F2020012217F
:1008F000016070471420C4F20200072101607047B4
:100900001420C4F202004121016070471420C4F297
:1009100002006321016070471420C4F202005521D7
:10092000016070471420C4F2020011210160704779
:1009300040F2000CC2F2000CDCF800100129B8BF34
:10094000704740F214420021C4F202024FF4806367
:100950001360DCF8000001318142F9DB70470000D0
:10096000FFF7D2FCFFF700FD40F21044C4F202048E
:10097000206800F00700DFE800F007473E41444AE6
:100980004D04FFF709FDF3E7FFF750FEFFF7A8FE60
:10099000FFF7CEFDFFF7ECFEFFF712FEFFF76AFE52
:1009A000FFF766FDFFF7C0FEFFF776FEFFF762FE7A
:1009B000FFF702FFFFF7A6FEFFF7B6FEFFF7B8FD51
:1009C000FFF78EFEFFF732FEFFF752FDFFF7C2FD85
:1009D000FFF786FEFFF7BAFEFFF7CEFDFFF7F0FD4B
:1009E000FFF7D8FEFFF7A4FDFFF744FEFFF7E8FD91
:1009F000FFF776FEBCE7FFF70DFFB9E7FFF7EEFE66
:100A0000B6E7FFF789FDB3E7FFF792FFB0E7FFF71F
:100A10000FFFADE7FFF7F0FEAAE7F1EE100A4FF681
:100A2000FF71C0F2C03120EA010040F04070E1EEF9
:100A3000100A7047540A000800000020040000005B
:100A4000D4010008580A00080800002060060000D1
:080A5000F001000840420F0014
:0400000508000239B4
:00000001FF
