:020000040800F2
:10000000600600201D0200082502000827020008E3
:10001000290200082B0200082D0200080000000041
:100020000000000000000000000000002F02000897
:100030003102000800000000330200083502000809
:1000400037020008370200083702000837020008AC
:10005000370200083702000837020008370200089C
:10006000370200083702000837020008370200088C
:10007000370200083702000837020008370200087C
:1000800037020008370200083702000800000000AD
:10009000000000000000000000000000370200081F
:1000A000370200083702000837020008370200084C
:1000B000370200083702000837020008370200083C
:1000C000370200083702000837020008370200082C
:1000D000370200083702000837020008000000005D
:1000E000370200083702000837020008000000004D
:1000F00000000000000000000000000037020008BF
:10010000000000003702000837020008370200082C
:1001100000000000000000000000000000000000DF
:1001200037020008370200083702000837020008CB
:10013000370200080000000000000000000000007E
:10014000000000000000000000000000370200086E
:10015000370200083702000837020008370200089B
:10016000370200083702000800000000000000000D
:10017000000000000000000000000000000000007F
:10018000000000003702000800000000000000002E
:10019000370200083702000800F002F800F02EF8DD
:1001A0000AA090E8000C82448344AAF10107DA45D2
:1001B00001D100F023F8AFF2090EBAE80F0013F0F6
:1001C000010F18BFFB1A43F001031847AC010000F0
:1001D000BC0100000023002400250026103A28BF9F
:1001E00078C1FBD8520728BF30C148BF0B607047A9
:1001F0001FB500F0B4F81FBD10B510BD00F031F808
:100200001146FFF7F5FF00F0A3F800F04FF803B434
:10021000FFF7F2FF03BC00F057F8000009488047E1
:1002200009480047FEE7FEE7FEE7FEE7FEE7FEE7D8
:10023000FEE7FEE7FEE7FEE704480549054A064BF0
:1002400070470000D90200089901000860000020F2
:1002500060060020600200206002002070477047A6
:100260007047754600F02CF8AE46050069465346C7
:1002700020F00700854618B020B5FFF7DDFFBDE888
:1002800020404FF000064FF000074FF000084FF0FD
:10029000000BAC46ACE8C009ACE8C009ACE8C0094A
:1002A000ACE8C00921F007018D46704710B504463F
:1002B000AFF300802046BDE81040FFF7A8BF000064
:1002C000004870470000002001491820ABBEFEE73F
:1002D00026000200704700004EF68850CEF2000063
:1002E000016841F4700101607047000043F630007E
:1002F000C4F20200016841F2555241F0010101606F
:100300000020C4F2020001681143016041684160AD
:10031000816811438160C16840F6AA221143C1601F
:1003200070470000B0B50128B8BFB0BD4FF47A7176
:1003300000FB01F4002500BF00F004F80135A542E0
:10034000FADBB0BD1420C4F20200472101607047FF
:10035000FFF7CCFF42F21070FFF7E4FFFAE7F1EE8F
:10036000100A4FF6FF71C0F2C03120EA010040F0E0
:100370004070E1EE100A704788030008000000207A
:0803800060060000D401000832
:040000050800021DD0
:00000001FF
